:020000020000FC
:040000000C942E002E
:100040000C945E000FEF0DBF18E01EBF3F065B4F24
:10005000666D7D077F6F777C395E79710FE304B938
:100060005A9A5B9A52985398579A50E0F0E0ECE411
:10007000E50F54910E945600789440E050E04336DA
:10008000F1F744270E944900539554FD50E00C9429
:100090003F0066275F98652FF0E0ECE4E60F64917F
:1000A00065B966FD4F9A66FF5F98089505E005BD46
:1000B00003E606BD01E000936E00089503E606BD69
:0600C000A89A4395189573
:00000001FF
