:020000020000FC
:040000000C942E002E
:100040000C9487000FEF0DBF18E01EBF3F065B4FFB
:10005000666D7D077F6F777C395E79710FE304B938
:100060005A9A5B9A52985398579A569A559A50E0D2
:10007000F0E0ECE4E50F54910E947F00789440E0BA
:1000800050E070E05D985F98662765B95D985F986D
:100090000E946F005E9A5D9865B966FD5F9A66FF83
:1000A0005F985E985F98882785B95E985F980E94F0
:1000B00077005D9A5E9885B986FD5F9A86FF5F98A6
:1000C000443601F7442753955A3011F00C944200FE
:1000D00050E07395763009F0D5CF70E0D3CF662726
:1000E0005F98652FF0E0ECE4E60F649108958827AF
:1000F0005F98872FF0E0ECE4E80F8491089505E025
:1001000005BD03E606BD01E000936E00089503E619
:0C01100006BDA89A4395C395C3951895A9
:00000001FF
